:020000040800F2
:100000000004002047010008750100087B0100087A
:100010007F0100088301000887010008000000003C
:100020000000000000000000000000008B0100083C
:100030008D010008000000008F01000891010008F8
:1000400067010008670100086701000867010008F0
:1000500067010008670100086701000867010008E0
:1000600067010008670100086701000867010008D0
:1000700067010008670100086701000867010008C0
:1000800067010008670100086701000867010008B0
:1000900067010008670100086701000867010008A0
:1000A0006701000867010008670100086701000890
:1000B0006701000867010008670100086701000880
:1000C0006701000867010008670100086701000870
:1000D0006701000877010008670100086701000850
:1000E0006701000867010008670100086701000850
:1000F0006701000867010008670100086701000840
:10010000670100086701000867010008670100082F
:10011000670100086701000867010008670100081F
:10012000670100086701000867010008670100080F
:10013000DFF80CD001F076FF004800475F040008AC
:1001400028020020704708488047084981F3088842
:1001500007480047FEE7FEE7FEE7FEE7FEE7FEE7AB
:10016000FEE7FEE7FEE7FEE7450100082802002063
:1001700031010008704700BFFEE700BFFEE700BF87
:10018000FEE700BFFEE700BFFEE77047704770471D
:100190007047000008B54EF67D7000F062FCC7A302
:1001A00000934EF67D731F220021102000F074FF93
:1001B000C6A300934EF67D734FF4784214211020AD
:1001C00000F06AFF3A23712226210F2000F024FF5D
:1001D000C2A300934EF67D734FF6E07228211020E3
:1001E00000F05AFF5823712244210F2000F014FF21
:1001F000BEA300934EF67D731F224621102000F00F
:100200004BFF7623712262210F2000F005FFBBA374
:1002100000934EF67D734FF478426421102000F075
:100220003BFFBAA300934EF67D731F227821102066
:1002300000F032FFB9A300934EF67D734FF478427D
:100240008C21102000F028FFB848437900934EF627
:100250007D734FF478427D21642001F025F94FF43D
:100260007A7000F03CFCB148037900934EF67D7340
:100270004FF478427D21642001F016F94FF47A7032
:1002800000F02DFCA948C37800934EF67D734FF41F
:1002900078427D21642001F007F94FF47A7000F074
:1002A0001EFCA248837800934EF67D734FF478428B
:1002B0007D21642001F0F8F84FF47A7000F00FFC13
:1002C0009A48437800934EF67D734FF478427D212F
:1002D000642001F0E9F84FF47A7000F000FC9348D4
:1002E000037800934EF67D734FF478427D216420AD
:1002F00001F0DAF808BDF8B500244EF67D7000F084
:10030000B0FB8BA300934EF67D734FF4784214211B
:10031000102000F0C1FE4FF47A7000F0E0FB4EF6C2
:100320007D7000F09EFB00BF1FE0032094FBF0F007
:1003300040011E3085B2032094FBF0F100FB114018
:1003400000EB8000C004060C7849601C0B5C009335
:100350004EF67D734FF478422946304601F0A4F8FA
:10036000642000F0BCFB601CC4B20A2CDDDBF8BDCD
:1003700008B54EF67D7000F074FB5CA300934EF65A
:100380007D731F220A21102000F086FE4FF47A7040
:1003900000F0A5FB4EF67D7000F063FB47A30093D1
:1003A0004EF67D734FF6E0721E21102000F074FEB1
:1003B00062A300934EF67D731F223221102000F0BD
:1003C0006BFE62A300934EF67D734FF47842462194
:1003D000102000F061FE61A300934EF67D731F2292
:1003E0006421002000F058FE60A300934EF67D7358
:1003F0004FF478428221002000F04EFE40F6B830E3
:1004000000F06DFB08BD38B502244EF67D7000F09B
:1004100028FB5BA300934EF67D731F220A21142054
:1004200000F03AFE4FF47A7000F059FB11E04FF6FD
:10043000FF7000F016FB002000F013FB4FF4784033
:1004400000F00FFB4FF4FC6000F00BFB1F2000F0EE
:1004500008FB2000A4F10101CCB2E8D138BD08B5F9
:1004600000BF01F0B4FD482000F022FB00F0A3F92A
:10047000FFF790FEFFF7C7FFFFF73DFFFFF778FF9D
:100480004EF67D7000F0EDFA40A300934EF67D73BA
:100490001F2232210A2000F0FFFD4FF47A7000F095
:1004A0001EFBFFF777FE00BFFEE710B501F08FFDE2
:1004B00010BD00E0401E0028FCD17047C9C1D2AB7E
:1004C000B5E7D7D3BFC6BCBC00000000D2BABEA7F8
:1004D000B2E2CAD4B3CCD0F200000000D1D5C9AB8F
:1004E000CCEEB3E4B2E2CAD400000000CEC4D7D64A
:1004F000CFD4CABEB2E2CAD400000000CDBCC6ACA4
:10050000CFD4CABEB2E2CAD40000000053313A4D83
:100510006F76652E202020200000000053323A53D1
:10052000656C6C65637420200000000000000020F2
:100530004E756D205465737400000000D7A8D7A2D3
:10054000D2BABEA7C5FAB7A200000000C8ABB3CCB0
:10055000BCBCCAF5D6A7B3D60000000054656C3AFF
:100560003135393839333133353038006D79746687
:10057000742E74616F62616F2E636F6D00000000F6
:10058000436F6C6F7220546573740000B2E2CAD47A
:10059000B3C9B9A62E00000070B5044608251BE0BB
:1005A0004FF40051FF4801F0E7F814F0800F05D038
:1005B0004FF40041FB4801F0DDF804E04FF4004146
:1005C000F84801F0D9F86006040E4FF40051F548E0
:1005D00001F0D0F8681EC5B2002DE1D1304670BDE3
:1005E00008B50121092001F0A2FA4FF48040ADF8CE
:1005F000000028208DF8030003208DF802006946D2
:10060000E84801F00DF84FF40040ADF8000010206C
:100610008DF8030003208DF802006946E14800F0E0
:10062000FFFF4FF47050ADF8000003208DF802007A
:1006300010208DF803006946DA4800F0F1FF08BD8C
:10064000024600BF108910F0020FFBD0918100BF5D
:10065000108910F0010FFBD09089C0B2704702885A
:100660004FF6C7731A400280012904D1028842F074
:100670001002028003E0028842F020020280028819
:1006800042F040020280704700B587B00121092086
:1006900001F04DFA4FF42040ADF8040003208DF82E
:1006A000060018208DF8070001A9BE4800F0B8FF29
:1006B0004FF48040ADF8040048208DF80700032077
:1006C0008DF8060001A9B74800F0AAFF4FF4E050EA
:1006D000ADF8040003208DF8060010208DF8070007
:1006E00001A9B04800F09CFF0121880301F02CFA19
:1006F0000020ADF808004FF48270ADF80A00002029
:10070000ADF80C000220ADF80E000120ADF810008D
:100710004002ADF812000020ADF81400ADF816004C
:100720000720ADF8180002A99F4801F095FA0121B1
:100730009D4801F029FB07B000BD10B50346002419
:100740004FF480609949086019469748FFF778FF91
:1007500010BD10B5034600244FF480609449086032
:1007600019469148FFF76CFF10BD30B504460D46A1
:100770002046FFF7EEFF2846FFF7EBFF30BD30B510
:1007800004460D462046FFF7D8FF2846FFF7D5FF61
:1007900030BD10B54FF48050844908604FF06400BC
:1007A00000F09DF94FF480508249C1F8100C3220BE
:1007B00000F095F910BD10B5FFF766FFFFF7E9FFF0
:1007C000CB20FFF7BAFF3920FFF7C3FF2C20FFF73C
:1007D000C0FF0020FFF7BDFF3420FFF7BAFF022063
:1007E000FFF7B7FFCF20FFF7A8FF0020FFF7B1FF0B
:1007F000C120FFF7AEFF3020FFF7ABFFE820FFF787
:100800009CFF8520FFF7A5FF0020FFF7A2FF7820BF
:10081000FFF79FFFEA20FFF790FF0020FFF799FF07
:100820000020FFF796FFED20FFF787FF6420FFF71A
:1008300090FF0320FFF78DFF1220FFF78AFF812032
:10084000FFF787FFF720FFF778FF2020FFF781FFF2
:10085000C020FFF772FF2320FFF77BFFC120FFF7C7
:100860006CFF1020FFF775FFC520FFF766FF3E20E5
:10087000FFF76FFF2820FFF76CFFC720FFF75DFF32
:100880008620FFF766FF3620FFF757FF4820FFF767
:1008900060FF3A20FFF751FF5520FFF75AFFB120C4
:1008A000FFF74BFF0020FFF754FF1820FFF751FF21
:1008B000B620FFF742FF0820FFF74BFF8220FFF72B
:1008C00048FF2720FFF745FFF220FFF736FF002003
:1008D000FFF73FFF2620FFF730FF0120FFF739FF2A
:1008E000E020FFF72AFF0F20FFF733FF3120FFF74B
:1008F00030FF2B20FFF72DFF0C20FFF72AFF0E20E3
:10090000FFF727FF0820FFF724FF4E20FFF721FF06
:10091000F120FFF71EFF3720FFF71BFF0720FFF72F
:1009200018FF1020FFF715FF0320FFF712FF0E201E
:10093000FFF70FFF0920FFF70CFF0020FFF709FF6B
:10094000E120FFF7FAFE0020FFF703FF0E20FFF77C
:1009500000FF1420FFF7FDFE0320FFF7FAFE112031
:10096000FFF7F7FE0720FFF7F4FE3120FFF7F1FE57
:10097000C120FFF7EEFE4820FFF7EBFE0820FFF74F
:10098000E8FE0F20FFF7E5FE0C20FFF7E2FE312026
:10099000FFF7DFFE3620FFF7DCFE0F20FFF7D9FE62
:1009A000112009E0000C014000380040140C014007
:1009B000100C014000000140FFF7BFFE782000F05E
:1009C0008EF82920FFF7B9FE2C20FFF7B6FE10BDE8
:1009D000F0B504460D4616461F462A20FFF7ADFE29
:1009E0002012E1B2FFF7C1FE2B20FFF7A6FE28126E
:1009F000E9B2FFF7BAFE2C20FFF79FFEF0BD30B53D
:100A000004460D462A20FFF798FE2012E1B2FFF7B8
:100A1000ACFE2B20FFF791FE2812E9B2FFF7A5FEEE
:100A20002C20FFF78AFE30BD70B504460D461646F1
:100A30002B46224629462046FFF7CAFF3012FFF711
:100A400088FEF0B2FFF785FE70BD70B504460D4616
:100A500029462046FFF7D3FFF0B2FFF77AFE304673
:100A600070BD70B5044640F23F13EF2200210846E6
:100A7000FFF7AEFF4FF480600B4908604FF00006AF
:100A80000DE0002508E021120848FFF7D9FDE1B28A
:100A90000648FFF7D5FD6D1CF02DF4D3761CB6F596
:100AA000A07FEED370BD0000100C01400038004064
:100AB0004FF0E021096921F004014FF0E0221161BB
:100AC0000146C21700EB5272D2101F4B1A70194622
:100AD00009784FF47A7251439A1C118070471A4A70
:100AE000921C128842434FF0E0235A6100229A611F
:100AF00001221A6100BF4FF0E022116911F0010FCD
:100B000002D011F4803FF6D000224FF0E0231A61AA
:100B10009A6170470C4A127842434FF0E0235A61C1
:100B200000229A6101221A6100BF4FF0E022116990
:100B300011F0010F02D011F4803FF6D000224FF0E7
:100B4000E0231A619A6170471000002030B5014619
:100B500001F01F04C1F34513CA0AE50205EB431572
:100B60001544A8B230BD2DE9F04704460D4616469F
:100B70001F464FF00008B1467000C0F1030A5FE065
:100B800005EB090291B204EB080290B23A46FFF776
:100B90004BFF05EB090291B2A4EB080290B23A4672
:100BA000FFF742FFA5EB090291B204EB080290B2F5
:100BB0003A46FFF739FFA5EB090291B2A4EB080210
:100BC00090B23A46FFF730FF05EB080291B204EB12
:100BD000090290B23A46FFF727FF05EB080291B2EF
:100BE000A4EB090290B23A46FFF71EFFA5EB0802FC
:100BF00091B204EB090290B23A46FFF715FFA5EB5C
:100C0000080291B2A4EB090290B23A46FFF70CFF3A
:100C1000BAF1000F05DA042000FB08A000F1060A73
:100C20000AE0A8EB0900042101FB00A000F10A0A78
:100C3000A9F101001FFA80F908F101001FFA80F8FC
:100C4000C8459DDBC84547D105EB090291B204EBCD
:100C5000080290B23A46FFF7E7FE05EB090291B2AF
:100C600004EB080290B23A46FFF7DEFEA5EB09025C
:100C700091B204EB080290B23A46FFF7D5FEA5EB1D
:100C8000090291B2A4EB080290B23A46FFF7CCFEFB
:100C900005EB080291B204EB090290B23A46FFF765
:100CA000C3FE05EB080291B2A4EB090290B23A46EA
:100CB000FFF7BAFEA5EB080291B204EB090290B26D
:100CC0003A46FFF7B1FEA5EB080291B2A4EB090288
:100CD00090B23A46FFF7A8FEBDE8F0872DE9FF5F26
:100CE00004460D4616461F4629462046FFF787FE56
:100CF000301B0390A7EB05080398002802DB0120B6
:100D0000029005E04FF0FF300290039840420390BC
:100D1000B8F1000F02DB0120019004E04FF0FF303A
:100D20000190C8F1000803984FEA40094FEA480AC9
:100D30000398404521DD0398AAEB000000904FF096
:100D4000000B16E0294620460E9AFFF76DFE00982C
:100D5000002806DB0098A0EB0900009001982844C9
:100D600085B20098504400900298204484B20BF160
:100D7000010B03988345E5DD1EE0A9EB0800009018
:100D80004FF0000B16E0294620460E9AFFF74CFE66
:100D90000098002806DB0098A0EB0A00009002985B
:100DA000204484B20098484400900198284485B2B9
:100DB0000BF1010BC345E6DDBDE8FF9F2DE9F843CC
:100DC00004460D4616461F46DDF820804EF67D731C
:100DD000A01982B200932B4629462046FFF77EFFDA
:100DE00042F66513691C394400938BB2A119491E60
:100DF0008AB2A119491E88B2691C89B2FFF76EFF39
:100E000042F66513E819009383B2A01982B2E8197B
:100E100081B22046FFF762FF4EF67D73E81900931A
:100E200083B2224629462046FFF758FF681C384403
:100E3000801E83B2601C3044801E82B2681C81B266
:100E4000601C80B2CDF80080FFF748FFBDE8F88352
:100E50002DE9F84304460D4616461F46DDF820806E
:100E6000B8F1000F2FD14EF67D73A01982B2009316
:100E70002B4629462046FFF731FF42F66513691CD1
:100E8000394400938BB2A119491E8AB2A119491E97
:100E900088B2691C89B2FFF721FF42F66513E81991
:100EA000009383B2A01982B2E81981B22046FFF7FD
:100EB00015FF4EF67D73E819009383B2224629464A
:100EC0002046FFF70BFFB8F1010F2FD142F6651353
:100ED000A01982B200932B4629462046FFF7FEFE5A
:100EE0004EF67D73691C394400938BB2A119491EDB
:100EF0008AB2A119491E88B2691C89B2FFF7EEFEB9
:100F00004EF67D73E819009383B2A01982B2E819F6
:100F100081B22046FFF7E2FE42F66513E81900931E
:100F200083B2224629462046FFF7D8FEB8F1020FC9
:100F30002FD14FF6FF73A01982B200932B4629469A
:100F40002046FFF7CBFE4FF6FF73691C3944009330
:100F50008BB2A119491E8AB2A119491E88B2691C17
:100F600089B2FFF7BBFE4FF6FF73E819009383B217
:100F7000A01982B2E81981B22046FFF7AFFE4FF602
:100F8000FF73E819009383B2224629462046FFF7F3
:100F9000A5FEBDE8F883F8B504460D4616461F4683
:100FA00044F2082300932B46324629462046FFF799
:100FB00095FE48F21043681C009383B2324681B21A
:100FC000601C80B2FFF78AFE44F2082300933B4680
:100FD000224629462046FFF781FE48F2104300933F
:100FE0003B46601C82B2681C81B2601C80B2FFF775
:100FF00075FE4FF6FF7300933B4632463946204656
:10100000FFF76CFE4FF6FF7300933B4632462946CE
:101010003046FFF763FEF8BDF8B504460D461646A8
:101020001F464FF6FF7300932B4632462946204653
:10103000FFF754FE4FF6FF7300933B4622462946C6
:101040002046FFF74BFE48F21043781E009383B210
:1010500081B23246601C80B2FFF740FE44F20823A2
:1010600000933B46324639462046FFF737FE48F2AA
:101070001043711E8AB288B200933B46691C89B244
:10108000FFF72CFE44F2082300933B4632462946E4
:101090003046FFF723FEF8BD2DE9F84F04460D4614
:1010A00016461F46DDF828800094D8E098F8000026
:1010B00080284BDA98F800B0BBF10D0F04D1009CEA
:1010C00005F1100085B23EE0BBF1200F04DDABF16D
:1010D00020001FFA80FB01E04FF0000B4FF00009E9
:1010E0002BE04FF0000A21E009EB0B10FA49095CF4
:1010F000802040FA0AF0014209D005EB090291B2C2
:1011000004EB0A0290B23246FFF78EFC0AE0BE42C0
:1011100008D005EB090291B204EB0A0290B23A46FC
:10112000FFF782FC0AF1010000F0FF0ABAF1080F94
:10113000DADB09F1010000F0FF09B9F1100FD0DB93
:1011400004F1080084B208F1010888E04FF0000BB8
:101150007CE00BEB0B10E14911F8100098F800103F
:1011600088426FD10BEB0B10DC4901EB400040785B
:1011700098F80110884265D14FF000095FE04FF008
:10118000000A25E00BEB0B10D44901EB4000801C5A
:1011900010F81910802040FA0AF0014209D005EB3E
:1011A000090291B204EB0A0290B23246FFF73CFC0E
:1011B0000AE0BE4208D005EB090291B204EB0A0234
:1011C00090B23A46FFF730FC0AF1010000F0FF0A46
:1011D000BAF1080FD6DB4FF0000A29E00BEB0B1039
:1011E000BE4901EB4000801C012202EB4901415C39
:1011F000802040FA0AF001420AD005EB090291B2C0
:1012000004EB0A02083290B23246FFF70DFC0BE005
:10121000BE4209D005EB090291B204EB0A02083282
:1012200090B23A46FFF700FC0AF1010000F0FF0A15
:10123000BAF1080FD2DB09F1010000F0FF09B9F1A2
:10124000100F9CDB0BF101001FFA80FBBBF1320F8A
:10125000FFF67FAF08F1020804F1100084B298F89D
:10126000000000287FF422AFBDE8F88F2DE9F05F81
:1012700004460D4616461F46DDF828800DE198F815
:101280000000802843DA98F800B0BBF1200F04DD9D
:10129000ABF120001FFA80FB01E04FF0000B4FF094
:1012A00000092BE04FF0000A21E009EB0B108A49FE
:1012B000095C802040FA0AF0014209D005EB0902DE
:1012C00091B204EB0A0290B23246FFF7ADFB0AE09E
:1012D000BE4208D005EB090291B204EB0A0290B2BB
:1012E0003A46FFF7A1FB0AF1010000F0FF0ABAF14C
:1012F000080FDADB09F1010000F0FF09B9F1100F66
:10130000D0DB08F1010804F1080084B2C5E04FF019
:10131000000BB9E00BEB8B0000EB4B10704911F8A0
:10132000100098F80010884272D10BEB8B0000EB94
:101330004B106B4901EB4000407898F8011088424F
:10134000F2D14FF0000997E04FF0000A28E00BEBD4
:101350008B0000EB4B10624901EB4000801C09EB55
:101360004901415C802040FA0AF0014209D005EBB6
:10137000090291B204EB0A0290B23246FFF754FB25
:101380000AE0BE4208D005EB090291B204EB0A0262
:1013900090B23A46FFF748FB0AF1010000F0FF0A5D
:1013A000BAF1080FD3DB4FF0000A2BE00BEB8B00F8
:1013B00000EB4B104A4901EB4000801C09EB49014E
:1013C000491C415C802040FA0AF001420AD005EB3A
:1013D000090291B204EB0A02083290B23246FFF7DA
:1013E00023FB0BE0BE4209D005EB090291B204EBEE
:1013F0000A02083290B23A46FFF716FB0AF10100E2
:1014000000F0FF0ABAF1080FD0DB4FF0000A2CE021
:1014100036E00BEB8B0000EB4B10314901EB400049
:10142000801C09EB4901891C405C802141FA0AF1CA
:1014300008420AD005EB090291B204EB0A0210320D
:1014400090B23246FFF7F0FA0BE0BE4209D005EB4E
:10145000090291B204EB0A02103290B23A46FFF749
:10146000E3FA0AF1010000F0FF0ABAF1080FD0DB3D
:1014700009F1010000F0FF09B9F1180FFFF664AFA0
:101480000BF101001FFA80FBBBF1140FFFF642AF16
:1014900008F1020804F1180084B298F8000000284E
:1014A0007FF4EDAEBDE8F09F2DE9F05F04460D46F8
:1014B00016461F464FF0000845E04FF000093BE09C
:1014C00008490A9801EBC01000EB880010F809B039
:1014D0004FF0000A29E0000066200008D82D00081F
:1014E000E234000857260008802040FA0AF010EA8B
:1014F0000B0F0AD005EB080291B204EBC90252446B
:1015000090B23246FFF790FA0BE0BE4209D005EBED
:10151000080291B204EBC902524490B23A46FFF776
:1015200083FA0AF1010000F0FF0ABAF1080FDBDBD1
:1015300009F1010000F0FF09B9F1040FC0DB08F167
:10154000010000F0FF08B8F1200FB6DBBDE8F09F06
:1015500010B50446C249601A8C422FD009DCC1483C
:10156000201810D0B0F5806F16D0B0F5006F4AD1BA
:101570001BE0B0F5806F2AD0B0F5006F30D0B0F529
:10158000406F40D135E00121042000F0EAFA00214B
:10159000042000F0E6FA37E00121082000F0E1FA2B
:1015A0000021082000F0DDFA2EE00121102000F0DB
:1015B000D8FA0021102000F0D4FA25E001212020E3
:1015C00000F0CFFA0021202000F0CBFA1CE001212E
:1015D000402000F0C6FA0021402000F0C2FA13E0DB
:1015E0000121802000F0BDFA0021802000F0B9FA2E
:1015F0000AE00121080200F0B4FA00214FF48070E3
:1016000000F0AFFA00E000BF00BF10BD10B501212F
:10161000084600F0A6FA0021012000F0A2FA10BD51
:101620002DE9F04100220023002400250026002798
:1016300091F803C00CF00F0291F803C01CF0100FDA
:1016400003D091F802C04CEA0202B1F800C01CF0CD
:10165000FF0F31D0066800242BE04FF0010C0CFA8C
:1016600004F5B1F800C00CEA0503AB4220D1A50097
:101670004FF00F0C0CFA05F7BE4302FA05FC4CEADA
:10168000060691F803C0BCF1280F06D14FF0010CFB
:101690000CFA04FCC0F814C00AE091F803C0BCF1D5
:1016A000480F05D14FF0010C0CFA04FCC0F810C033
:1016B000641C082CD1D30660B1F800C0BCF1FF0F48
:1016C00034DD466800242EE004F1080C4FF00108D8
:1016D00008FA0CF5B1F800C00CEA0503AB4221D1C1
:1016E000A5004FF00F0C0CFA05F7BE4302FA05FCFB
:1016F0004CEA060691F803C0BCF1280F05D104F1AD
:10170000080C08FA0CF8C0F8148091F803C0BCF17A
:10171000480F07D104F1080C4FF0010808FA0CF843
:10172000C0F81080641C082CCED34660BDE8F08160
:101730004FF6FF710180022181700421C170704752
:101740000246002093680B4201D0012000E00020F7
:1017500070470146886880B2704702460020D3680F
:101760000B4201D0012000E0002070470146C8680C
:1017700080B2704701617047416170470AB10161F1
:1017800000E041617047C16070474FF480320A4306
:101790008261816182618269826970470022324B75
:1017A0001A684FF680731A4042EA00120A432E4B21
:1017B0001A6070472D49C8617047F0B500220023B8
:1017C00000250024284E7568C0F3034482B200F45B
:1017D0004016B6F5401F08D125F07065224E766898
:1017E00026F07066204F7E6012E000F48016B6F599
:1017F000801F06D1032606FA04F39D4345F0706569
:1018000006E0460D360102FA06F6B54345F070656E
:1018100021B1460D360102FA06F63543124E7560C7
:10182000F0BD30B500228B071C0F0F2303FA04F222
:101830000D4B08338C1053F8244094438D1043F81B
:1018400025408C1053F824308C07240F00FA04F440
:101850002343054C08348D1044F8253030BD00007A
:101860000014014000F8FEBF0000014000002042CB
:10187000D748006840F00100D54908600846406834
:10188000D4490840D249486008460068D249084017
:10189000CF4908600846006820F4802008600846A8
:1018A000406820F4FE004860002088607047C84906
:1018B000096821F48031C64A11601146096821F493
:1018C00080211160B0F5803F03D0B0F5802F0ED19C
:1018D00006E0BF49096841F48031BD4A116007E064
:1018E000BB49096841F4A021B94A116000E000BF7A
:1018F00000BF704710B501460022002300204A11A6
:10190000012A02D1B24C236806E0022A02D1B04C6F
:10191000236A01E0AE4C636A01F01F020124944087
:101920001C4201D0012000E0002010BD70B5002451
:101930000025002600BF3120FFF7DCFF0646641CAF
:1019400016B9B4F5A06FF6D13120FFF7D3FF08B177
:10195000012500E00025284670BD00219C4A116841
:1019600021F0F80141EAC001116070479B4908600D
:1019700070470022964B5A6822F47C1240EA010319
:101980001A43934B5A607047944908667047002188
:101990008F4A516821F003010143516070478C4820
:1019A000406800F00C0070470021894A516821F01E
:1019B000F0010143516070470021854A516821F4CC
:1019C000E0610143516070470021814A516821F470
:1019D000605141EAC0015160704729B17C4A527A96
:1019E00002437B4B5A7206E0794A527AC343DBB218
:1019F0001A40774B5A727047794908607047002146
:101A0000734A516821F440410143516070470021FD
:101A1000744A11706E4A82F82010012802D00428FE
:101A200008D103E001216F4A117004E005216D4ADD
:101A3000117000E000BF00BF70476B49086070473D
:101A40006349096A0143624A116270476749086045
:101A5000704730B500210022002300245C4D6D68E2
:101A600005F00C0121B1042905D0082923D105E096
:101A70005F4D056022E05E4D05601FE0544D6D68CE
:101A800005F47012022505EB9242514D6D6805F484
:101A900080331BB9574D554305600BE04C4D6D68C5
:101AA00015F4003F03D0534D5543056002E0504DFF
:101AB0005543056002E04E4D056000BF00BF444D38
:101AC0006D6805F0F00109094B4D6C5C0568E54057
:101AD00045603F4D6D6805F4E061090A464D6C5C58
:101AE0004568E54085603A4D6D6805F46051C90A66
:101AF000414D6C5C4568E540C560354D6D6805F449
:101B00004041890B3C4D10356C5CC568B5FBF4F564
:101B1000056130BD29B12E4A526902432C4B5A61EE
:101B200004E02B4A52698243294B5A61704729B11C
:101B3000274A92690243264B9A6104E0244A92693B
:101B40008243234B9A61704729B1214AD2690243EB
:101B50001F4BDA6104E01E4AD26982431C4BDA61F2
:101B6000704729B11A4AD2680243194BDA6004E07F
:101B7000174AD2688243164BDA60704729B1144A7B
:101B800012690243124B1A6104E0114A126982433E
:101B90000F4B1A6170471949086070470F49C864B4
:101BA00070470B49C87170470948406A40F080701F
:101BB00007494862704701460020054A92680A4278
:101BC00001D0012000E00020704701498872704771
:101BD000001002400000FFF8FFFFF6FE0000424246
:101BE000D800424220100240800442423C0442425B
:101BF00000127A0000093D00140000204004424217
:101C000010B50446BD4820180FD0B0F5806F16D02F
:101C1000B0F5784F1DD101210803FFF7A2FF002185
:101C20004FF48050FFF79DFF14E001218803FFF778
:101C3000A5FF00214FF48040FFF7A0FF0AE001213B
:101C4000C803FFF79BFF00214FF40040FFF796FF0A
:101C500000E000BF00BF10BD10B50022028802F4F2
:101C600041520B884C8823438C882343CC882343E0
:101C70000C8923434C8923438C892343CC892343F8
:101C80001A430280838B4FF2FF74234083830B8AB5
:101C9000038210BD2DE9F04786B004460D460026AC
:101CA0000227B0464FF00109B246A08B4FF2400127
:101CB0000840A08302202084A68B2889022801D115
:101CC00000BF31E0A88810B94FF0010901E04FF0E2
:101CD000020901A8FFF7BDFEE888B0F5007F0BD12F
:101CE000019800EB8000400029890902B0FBF1F067
:101CF000401D1FFA80FA0CE04FEA49102989484339
:101D0000019901EB81014900B1FBF0F0401D1FFA80
:101D100080FA0A20BAFBF0FA0AF00108AAEB0800E0
:101D2000C0F34F074FEA0828022F01DBFF2F02DD27
:101D300002274FF0000847EA0800E988084320849A
:101D4000288840F4006069880843A98808436989A5
:101D500008430643A68306B0BDE8F0870021018052
:101D600041808180C180018141818181C1810721C0
:101D7000018270470021018041808180C180022161
:101D8000018100214181704721B1028842F0400267
:101D9000028004E002884FF6BF731A400280704749
:101DA00021B1828B42F48062828304E0828B4FF601
:101DB000FF331A408283704770B5002300240B1153
:101DC00001259D40ACB21AB185882543858004E089
:101DD0008588E643B6B23540858070BD10B51AB12E
:101DE00083880B43838004E08388CC43A4B22340E0
:101DF000838010BD81817047014688897047A1F5B5
:101E00007E42FF3A04D0028842F48072028004E0ED
:101E100002884FF6FF631A400280704721B1828822
:101E200042F00402828004E082884FF6FB731A407D
:101E30008280704702884FF2FF731A400280028846
:101E40000A4302807047018841F480510180704745
:101E500021B1028842F40052028004E002884DF66B
:101E6000FF731A400280704702460020012901D00A
:101E7000108B00E0908A70470146088A7047B1F5E0
:101E8000804F04D1028842F48042028004E002883C
:101E90004BF6FF731A4002807047024600201389F8
:101EA0000B4201D0012000E000207047CA430281AC
:101EB0007047F0B50246002000230024002501F001
:101EC0000F070126BE40B3B20C110126A640B4B2E2
:101ED000968806EA040516891E4202D00DB101203B
:101EE00000E00020F0BD10B5002201F00F04012336
:101EF000A3409AB2D343038110BD000000C8FFBFC6
:101F000000200021434A126842F48032414B1A609B
:101F100000BF404A126802F40031401C11B9B0F50C
:101F2000A06FF6D13B4A126812F4003F01D00121A4
:101F300000E00021012943D1374A126842F0100223
:101F4000354B1A601A46126822F003021A601A46CC
:101F5000126842F002021A602E4A52682D4B5A60F3
:101F60001A4652685A601A46526842F480625A60B1
:101F70001A46526822F47C125A601A46526842F499
:101F8000E8125A601A46126842F080721A6000BF66
:101F9000204A126812F0007FFAD01E4A526822F0DE
:101FA00003021C4B5A601A46526842F002025A6001
:101FB00000BF184A526802F00C02082AF9D101E069
:101FC00000BFFEE7704710B5FFF79AFF10BD10B5D0
:101FD0001048006840F001000E490860084640685B
:101FE0000E4908400B494860084600680C49084003
:101FF000084908600846006820F480200860084608
:10200000406820F4FE00486000208860FFF7DBFF96
:1020100010BD000000100240002002400000FFF848
:10202000FFFFF6FE064C074D06E0E06840F00103B6
:1020300094E8070098471034AC42F6D3FEF77CF8DA
:10204000603A0008803A000802E008C8121F08C180
:10205000002AFAD170477047002001E001C1121F29
:10206000002AFBD1704700000000000000000000C3
:1020700000000000000000101010101010101010D0
:1020800000001010000000006C6C24240000000010
:102090000100000000000024242424FE4848484891
:1020A000FC909090900000103C5492905038141284
:1020B0001292547810000000225C94A8481010245A
:1020C0002A5254880000000030484850206E549432
:1020D0008C888A740000000030301010000000006E
:1020E0000000000000000004081010202020202024
:1020F0002010100804000080402020101010101044
:102100001020204080000000000010543810385487
:1021100010000000000000000010101010FE101051
:10212000101000000000000000000000000000008F
:1021300000001010200000000000000000FE000061
:10214000000000000000000000000000000000008F
:1021500000001010000000000404080810102020E7
:102160004040808000000000384482828282828267
:1021700082824438000000001070101010101010FF
:102180001010107C000000003844828204081020E7
:10219000408284FC000000003844820204380402BB
:1021A0000282443800000000040C14142424444427
:1021B000FE04040E00000000FC808080B8C482028F
:1021C00002828478000000003C428280B8C482828F
:1021D00082824438000000007E428204040808081D
:1021E00010101010000000003844828244384482ED
:1021F0008282443800000000384482828282463A5B
:1022000002824438000000000000101000000000AE
:10221000101000000000000000001010000000007E
:1022200000101020000000000000061860806018F8
:10223000060000000000000000000000FE0000FE9C
:1022400000000000000000000000C0300C020C3054
:10225000C000000000000038448282020408101010
:1022600010001010000000003844829AAAAAAAAAFE
:10227000AA9680423C0000001010102828284444F0
:102280007C4444EE00000000FC424242427C424258
:10229000424242FC000000003C44828080808080FA
:1022A0008282443800000000F844424242424242E6
:1022B000424244F800000000FC444240447C444058
:1022C000404244FC00000000FC444240447C444046
:1022D000404040F000000000344C828080808E84BA
:1022E00084844C3400000000EE444444447C444464
:1022F000444444EE000000007C1010101010101038
:102300001010107C000000003E08080808080808AB
:102310000888887000000000EE444848506050482B
:10232000484444EE00000000E0404040404040404F
:10233000404244FC00000000C6446C6C6C54545491
:10234000444444EE00000000CE4464646454544CA1
:102350004C4C44E400000000384482828282828235
:102360008282443800000000F844424242447840EF
:10237000404040E000000000384482828282828235
:1023800082BA443C02000000F0484444444870488B
:10239000444444E6000000003C44828040300C028B
:1023A00002824478000000007C549210101010103B
:1023B0001010103800000000EE44444444444444EB
:1023C0004444443800000000EE4444444428282893
:1023D0002810101000000000EE445454545454547B
:1023E0002828282800000000EE444428281010283F
:1023F000284444EE00000000EE4444282828101031
:1024000010101038000000007E44840808102020BE
:10241000408284FC0000001C1010101010101010DE
:10242000101010101C000000EE445454FE5454547C
:10243000282828280000007010101010101010100C
:1024400010101010700000304884000000000000E0
:10245000000000000000000000000000000000007C
:1024600000000000FE00004020000000000000000E
:102470000000000000000000000000007884047CE0
:1024800084848C7600000000C04040405864424282
:102490004242645800000000000000003844808080
:1024A00080804438000000000C040404344C848410
:1024B00084844C360000000000000000788484FC16
:1024C000808084780000000018242020F82020203C
:1024D0002020207000000000000000003A444478F2
:1024E000807C82827C000000C040404058644444AC
:1024F000444444EE000000001010000030101010A2
:1025000010101038000000001010000030101010E3
:102510001010109060000000C04040405C485060C7
:10252000504844EE00000000301010101011101040
:10253000101010390000000000000000ACD2929290
:10254000929292D6000000000000000058E444443B
:10255000444444EE00000000000000003844828241
:10256000828244380000000000000000D86442422B
:1025700042645840E000000000000000364C8484B3
:10258000844C34040E000000000000006C30202059
:102590002020207000000000000000007888846087
:1025A000188444780000000000202020F82020201B
:1025B000202024180000000000000000C642424213
:1025C0004242463A0000000000000000EE44442869
:1025D000282810100000000000000000EE444454C1
:1025E000542828280000000000000000EE442810B5
:1025F000102844EE0000000000000000EE444428D3
:10260000281010A0C0000000000000007E448810C8
:10261000204284FC0000000C1010101010601010FC
:10262000101010100C0000101010101010101010CE
:1026300010101010100000C0202020202018202092
:1026400020202020C00000000000000000728C004C
:102650000000000000000000000000001FE000007B
:102660003FF000003FF000001FE000018006000383
:10267000C00F0003C00F0003C00F0003C00F000312
:10268000C00F0003C00F0003C00F0003C00F000302
:102690000003000000000000000000000000000334
:1026A00000030003C00F0003C00F0003C00F0003AE
:1026B000C00F0003C00F0003C00F0003C00F0003D2
:1026C000C00F0001800600001FE000003FF0000086
:1026D0003FF000001FE000000000000000000000CC
:1026E00000800000018000000380000007800000DF
:1026F00007800000078000000780000007800000BE
:1027000007800000078000000780000007800000AD
:102710000180000000000000000000000000000038
:102720000180000007800000078000000780000093
:10273000078000000780000007800000078000007D
:102740000780000007800000038000000180000077
:102750000080000000000000000000001FE00000FA
:102760003FF00000FFF00001FFE000000006000065
:10277000000F0000000F0000000F0000000F00001D
:10278000000F0000000F0000000F0000000F00000D
:102790001FE300007FF800007FF800001FE0000347
:1027A00000000003C0000003C0000003C0000003DD
:1027B000C0000003C0000003C0000003C00000030D
:1027C000C0000001800000001FF000003FF8000082
:1027D0003FFC00001FFE000000000003FF8000011E
:1027E000FFC00000FFC000007F8000000018000054
:1027F000003C0000003C0000003C0000003C0000E9
:10280000003C0000003C0000003C0000003C0000D8
:102810007F8C0001FFE00001FFF000007F800000DE
:10282000000C0000003C0000003C0000003C0000E8
:10283000003C0000003C0000003C0000003C0000A8
:10284000003C0000001800007F800000FFC0000175
:10285000FFC00003FF800000000000000000000235
:10286000000100030003000380070003C00F000302
:10287000C00F0003C00F0003C00F0003C00F000310
:10288000C00F0003C00F0003C00F0003C00F000300
:102890001FE300007FF800007FFC00001FE0000045
:1028A00000030000000F0000000F0000000F0000F8
:1028B000000F0000000F0000000F0000000F0000DC
:1028C000000F0000000F00000007000000030000E0
:1028D0000001000000000000000000001FFC0000DC
:1028E0003FF800003FF000001FE0000180000003FF
:1028F000C0000003C0000003C0000003C0000003CC
:10290000C0000003C0000003C0000003C0000003BB
:102910001FE000007FF800007FF800001FE00000CB
:1029200000030000000F0000000F0000000F000077
:10293000000F0000000F0000000F0000000F00005B
:10294000000F0000000600003FE000007FF00000E4
:10295000FFF00001FFE00000000000001FFC00008D
:102960003FF800003FF000001FE00001800000037E
:10297000C0000003C0000003C0000003C00000034B
:10298000C0000003C0000003C0000003C00000033B
:102990001FE000007FF800007FFC00001FE0000344
:1029A00000030003C00F0003C00F0003C00F0003AB
:1029B000C00F0003C00F0003C00F0003C00F0003CF
:1029C000C00F0001800600001FE000003FF0000083
:1029D0003FF000001FE0000000000007FFE00003E0
:1029E000FFC00001FF880000FF1800000038000051
:1029F00000780000007800000078000000780000F7
:102A000000780000007800000078000000780000E6
:102A1000001800000000000000000000000000009E
:102A20000018000000780000007800000078000026
:102A300000780000007800000078000000780000B6
:102A40000078000000780000003800000018000046
:102A50000008000000000000000000001FE000006F
:102A60003FF000003FF000001FE00001800600037F
:102A7000C00F0003C00F0003C00F0003C00F00030E
:102A8000C00F0003C00F0003C00F0003C00F0003FE
:102A90001FE300007FF800007FFC00001FE0000340
:102AA00000030003C00F0003C00F0003C00F0003AA
:102AB000C00F0003C00F0003C00F0003C00F0003CE
:102AC000C00F0001800600001FE000003FF0000082
:102AD0003FF000001FE00000000000001FE00000C9
:102AE0003FF000003FF000001FE0000180060003FF
:102AF000C00F0003C00F0003C00F0003C00F00038E
:102B0000C00F0003C00F0003C00F0003C00F00037D
:102B10001FE300007FF800007FFC00001FE00000C2
:102B200000030000000F0000000F0000000F000075
:102B3000000F0000000F0000000F0000000F000059
:102B4000000F0000000600001FE000003FF0000042
:102B50007FF00000FFE00000000000000000000027
:102B60000000000000000000000000000000000065
:102B70000000000000000000000000000000000055
:102B80000000000000000000000000000000000045
:102B90000000000000000000000000000000000035
:102BA00000000000000000000000000078000000AD
:102BB0007800000078000000780000007800000035
:102BC000780000000000000000000000000000008D
:102BD00000000000000000000000000000000000F5
:102BE00000000000000000000000000000000000E5
:102BF0000000000000000000070000000F8000003F
:102C00000F8000000F80000007000000000000009F
:102C100000000000000000000000000000000000B4
:102C200000000000070000000F8000000F8000007F
:102C30000F800000070000000000000000000000FE
:102C40000000000000000000000000000000000084
:102C50000000000000000000000000000000000074
:102C60000000000000000007C006000FE0060000A2
:102C7000000C0030181800301818003018300030E0
:102C8000183000301860003008C00007C0C0000FC6
:102C9000E080000000000000000FE0000607C00018
:102CA000063018000C3018000C30180018301800CE
:102CB000303018003030180060000000C00FE00015
:102CC000C007C0000000000000000000000000007D
:102CD00000000000000000000000000000000000F4
:102CE00000000000000000000000000000000007DD
:102CF00000E0000887FC00088E03000898018007A8
:102D0000180080003000000030000000700000005B
:102D10006000000060000000600000006000000033
:102D20006000000070000000300000003000000073
:102D300038000000180100000C03000007FC000030
:102D400001F0000000000000000000000000000092
:102D50000000000000000000000000000000000073
:102D60000000000000000000000000000000000063
:102D70000000000000000000000000000000000053
:102D80000000000000000000000000000000000043
:102D9000000000003FF000007FF000007FE0000036
:102DA000FFC0000000000000000000000000000064
:102DB0000000000000000000000000000000000013
:102DC0000000000000000000000000000000000003
:102DD0000000000000000000C9C1200017F8000832
:102DE00040084208420842084508488850484008C0
:102DF00040084008401800000000D2AB23B82888E3
:102E0000AAA8719822A8F94053F8562053F85220E6
:102E100053F85A2053F8820000000000B5E7020082
:102E2000020002007FF0421042107FF04210421078
:102E30007FF042000208020801F800000000D7D32A
:102E40007FF000200040008001000200FFF8020037
:102E5000020002000200020002000E00000000005A
:102E6000BFC600200D2070A010A01220FD20112050
:102E700030383BE05420902010201020102000001B
:102E80000000BCBC208020802080F7F020802080C3
:102E900027E03220E2202140208021402220EC182F
:102EA00000000000D2BA0080404027F811400140E5
:102EB0008278424816A81AD023502220422042503D
:102EC000028800000000BEA73FE020203FE0202055
:102ED0003FE00000FDF885088508FDF885088508B5
:102EE000FDF8850800000000B2E200084F8828883D
:102EF0000AA88AA84AA80AA82AA82AA842284508EF
:102F000084888888103800000000CAD440502048C7
:102F100020400FF80040E04027402240224022207D
:102F20002A2833A82E18000800000000B3CC0000A7
:102F30001BF0E210221023F0F800200033F068802C
:102F40006080A3F02080208027F800000000D0F2ED
:102F5000020001003FF820002FF0202022402180B5
:102F60003FF820882090408040808380000000004F
:102F7000D1D5200010F87E20444028F87E8848A84B
:102F800050A864A848A872A8845018886108000056
:102F90000000C9AB100010003FE0404080807FF08F
:102FA0004210421042107FF04000400840083FF8B5
:102FB00000000000CCEE20802FF8208027F0F410D5
:102FC00027F0241027F0241027F03410CFF8022027
:102FD000041000000000B3E404000200FFF8080041
:102FE000104020207FF0089008800880088010881A
:102FF0002088C07800000000CEC404000200020057
:10300000FFF810401040088008800500020005000D
:1030100008803060C01800000000D7D6040002000D
:10302000FFF8800880083FC0008001000200FFF820
:103030000200020002000E0000000000CFD43FE0BA
:10304000202020203FE0202020203FE008804890E2
:10305000289028A008800880FFF800000000CABE61
:1030600000003FE0000000000000FFF802001240F6
:10307000122022104208820802000E000000000008
:10308000CDBC7FF84008440847C8484854884308E6
:103090004CC8733840884C08430840887FF80000CB
:1030A0000000C6AC00802080208020803FF02000FF
:1030B000200020003FC02040204020404040804071
:1030C00000000000B4A520403840484091F07D50F9
:1030D000555055507D5055F054407C40545057F851
:1030E0008C0800000000C3FE2220222027F8FA20CE
:1030F00027F0241027F03410E7F020802FF821402B
:103100002220EC1800000000CAE440804140F22078
:1031100044108BE8A000F78824A827A834A8E7A8C3
:1031200024A8248825B800000000C8EB080004008B
:10313000040002000200050005000880088010401D
:10314000104020204010800800000000C8AB0200A2
:1031500002000500088010402020DFD80200020095
:103160001FC0020002000200FFF800000000B3CC04
:1031700000001BF0E210221023F0F800200033F0D2
:1031800068806080A3F02080208027F80000000085
:10319000BCBC208020802080F7F02080208027E0A9
:1031A0003220E2202140208021402220EC18000023
:1031B0000000CAF50200024002200200FFF80700EA
:1031C0000A800A8012402220421082080200020077
:1031D00000000000D6A702000200FFF80200020073
:1031E0007FE010201040088005000200050018C094
:1031F000E03800000000B3D62080208023F0F88063
:10320000208027F828203020E7F8202022202120C5
:103210002020E0E000000000D7A8020002007FF0BC
:1032200004000400FFF8080010003FE00020004008
:103230001C800300008000000000D7A20100408035
:10324000200017F0008080804080008017F0108000
:103250002080208040804FF800000000C5FA204008
:1032600024402440F4482450276024403440E44063
:103270002440244025482648E43800000000B7A236
:1032800002002220221044007FF8040008000FE012
:10329000142024404280810006C03838000000001D
:1032A000B3C900A0009000807FF8408040907C90DF
:1032B000449044A044A0444858A841188208000003
:1032C0000000B9A601000100F90023F0211021102F
:1032D0002110211021103910C210021004100860B2
:1032E00000000000D2C60000002000780CE4790441
:1032F000516810307E6019981A3C2FE448E4083871
:10330000003000600000B6AF0000001000183E1052
:103310001E10007C00A67E22784220422644228491
:103320003E8C008800900000D1A100000120012007
:1033300003FC62203420042003FC240021B021205F
:103340002220323E18000FE00000D4F100000000FF
:1033500010FC1304110C3DF8703E10D015907CF059
:10336000503E18101BFE023000200000CFEE00007F
:10337000000003FE00607C4012FC110411061136AF
:1033800011241F44794400C0009C01860000C4BF82
:10339000000000000FE03C18200820043E046004F8
:1033A00060047E046004200C20081FF001800000EF
:1033B000B6CC0000080011FC103E3EF82D8C29040C
:1033C000490409043E8C50FC10881EC811FC100EE4
:1033D0000000B0B400000040006012FE13023A4248
:1033E0007F4410C41BFE3C987190113011A00078EE
:1033F000004C0000C8B70000004000F878C41F8CE3
:10340000313821EC2126413A7DE2272225FA3D265A
:10341000012401040000B6A80000010001705FFC57
:10342000700420042FF801001100113821C431006C
:103430003F0063E040380000B3A40000000008181B
:10344000086008C00B001E00181C7FF010001180DF
:1034500010E01838098E0F000000B0B400000040E2
:10346000006012FE13023A427F4410C41BFE3C98D7
:103470007190113011A00078004C0000B7B5000029
:10348000000007F80600240014F8078C0404240840
:10349000261825F0647C64C220801FC00000BBD8C1
:1034A000000000001FF030182008278C2C4428440E
:1034B00028442CC427842004300C1FF8038000000B
:1034C00000000000000000000000000000000000FC
:1034D00000000000000000000000000000000000EC
:1034E0000000B4BF000000000000020100063FC061
:1034F0000C3FE01803001002003336603726203EF0
:1035000066301C643018642031FEE03F1FC01C0C84
:1035100000000C000704003E07F00001C00000009E
:10352000000000000000000000000000C9AB000027
:103530000000000001FE0003E3000703000C03008D
:103540001C3F003BFFC03F30600C30200C30200C93
:1035500010200C10600FFFC0083F0008000008009A
:10356000600E3FE007FC00000000000000000000CB
:10357000000000000000CCEE00000000000000038E
:103580000000FFE00C07F00C06000CFF803FF0E0AD
:103590001FC0600CFE300CCC3004F83004FF200457
:1035A000C0201FFE603EC06001FFF001FFF0006020
:1035B000600040000000000000000000000000006B
:1035C000B3E400000000000000200000300007FF0E
:1035D000F03FFFE00300000601800C01800801C0FD
:1035E0001807E00FFE7007E0000206000604000462
:1035F00004000404000C06700C07E000000000004A
:1036000000000000000000000000B2E20000000026
:10361000000000003039FC301FCC300706B00F0628
:10362000F01907B03137B03136F01F27F00167F0DD
:1036300001E5F001E1F00041F00CF8B03CD83000B9
:103640008C3000803000000000000000000000000E
:1036500000000000CAD40000000000000803600C55
:1036600003700C0330003FE0003F800801003C0184
:1036700080047F80047D800C00800C10C00C10C082
:103680000C18400C1C600F7E60067030000030008B
:103690000000000000000000000000000000CEC498
:1036A00000000000C00000E00000700001FFE01F0B
:1036B000FFC0180100000300000600000E00001CFF
:1036C000000E180007300001E00000F00000FC00D0
:1036D000018F000303C00201E000000000000000B1
:1036E0000000000000000000D7D60000000000002D
:1036F000002000003F0031FFE03FC02038003030A4
:10370000FE2033C660100200000C000018000018F4
:1037100000000C0007FFE03FFFE0000400000C0089
:10372000000C00000000000000000000000000008D
:103730000000CFD400000000000007FF000F03C00E
:103740000C00401FF8601800600800400E01C00720
:10375000FF000000000184000184001987800F8CA5
:10376000E0078C2000CC0003FFE01FFFC00000003A
:10377000000000000000000000000000CABE0000C1
:10378000000000000E00001FFFC0007FE0000000EE
:10379000000000000000000000003FC03FFFE0000C
:1037A00030000030000030000613000C13C00C186D
:1037B000F0181800181800000000000000000000B9
:1037C000000000000000CDBC00000000000007FF6A
:1037D000000F03801CC0C019FC6011C660330620B6
:1037E00033E63036FF30301FF030703030FC30338D
:1037F0009F3036002010E060187C400E01C003FFAF
:103800000000380000000000000000000000000080
:10381000C6AC0000000000000818001808001808D6
:1038200000180800180C201FFFF01FF800180000F7
:1038300010000010F8001FFE001E0300100300100F
:103840000300100300100300180200000000000035
:1038500000000000000000000000CFD400000000C5
:10386000000007FF000F03C00C00401FF8601800A5
:10387000600800400E01C007FF0000000001840046
:103880000184001987800F8CE0078C2000CC000396
:10389000FFE01FFFC000000000000000000000006B
:1038A00000000000CABE0000000000000E00001F63
:1038B000FFC0007FE00000000000000000000000EA
:1038C00000003FC03FFFE00030000030000030004B
:1038D0000613000C13C00C18F0181800181800007C
:1038E0000000000000000000000000000000B4A57F
:1038F0000000000000000601800FC1801E618030C2
:103900004FC020CFE0078D303FC930337930337955
:10391000303FFB3037FF203267E03FE3803FE3C0BA
:103920003263603267F0304FB000000000000000EA
:103930000000000000000000C3FE000000000000C6
:103940000030C000FFF00C79C00C1F800C7FE03FFE
:10395000E0600CC0300CFC3004C03007C0301E608A
:10396000603C3FC0041C00047FE000FFE00030C06A
:103970000060600000000000000000000000000087
:103980000000CAE40000000000000C03800C0FC01F
:10399000081C703F70001F9FC0101FC01000003631
:1039A0007C3017E6301FE3B0067FB00277F007E304
:1039B000F03F7FF01336F00326300326300000007E
:1039C000000000000000000000000000C8EB000044
:1039D0000000000006000003800001C00000E000BD
:1039E00000700000780000CC0000C60001830003D6
:1039F00001800700C00600E00C00701800301800BD
:103A00000030000000000000000000000000000086
:103A100000000000000000000000000000000000A6
:103A20000000000000000000000000000000000096
:103A30000000000000000000000000000000000086
:103A40000000000000000000000000000000000076
:103A50000000000000000000000000000000000066
:103A6000803A0008000000202800000048200008DC
:103A7000A83A000828000020000200005820000892
:103A80000001020304050607080900000000000009
:103A90000000000000000000010203040102030412
:083AA0000607080902040608EC
:0400000508000131BD
:00000001FF
