:10032100E4FDFCC3ED9FEC9E5015E4FBFA0BBB0012
:0F033100010ABA09F8BBC4F50DBD00010C80E448
:01034000229A
:10027600C2B5C2A38F20A20792A2C2A1D2A1A20692
:1002860092A2C2A1D2A1A20592A2C2A1D2A1A20407
:1002960092A2C2A1D2A1A20392A2C2A1D2A1A202FB
:1002A60092A2C2A1D2A1A20192A2C2A1D2A1A200EF
:0902B60092A2C2A1D2A1D2B5228C
:04022900120276FF48
:10022D00C2B5D2A38F20A20792A2C2A1D2A1A206CB
:10023D0092A2C2A1D2A1A20592A2C2A1D2A1A20450
:10024D0092A2C2A1D2A1A20392A2C2A1D2A1A20244
:10025D0092A2C2A1D2A1A20192A2C2A1D2A1A20038
:09026D0092A2C2A1D2A1D2B522D5
:10019800C2B5D2A38F20A20792A2C2A1D2A1A20661
:1001A80092A2C2A1D2A1A20592A2C2A1D2A1A204E6
:1001B80092A2C2A1D2A1A20392A2C2A1D2A1A202DA
:1001C80092A2C2A1D2A1A20192A2C2A1D2A1A200CE
:1001D80092A2C2A1D2A1D2B5C2B5D2A38D20A20744
:1001E80092A2C2A1D2A1A20692A2C2A1D2A1A205A4
:1001F80092A2C2A1D2A1A20492A2C2A1D2A1A20398
:1002080092A2C2A1D2A1A20292A2C2A1D2A1A2018B
:1002180092A2C2A1D2A1A20092A2C2A1D2A1D2B599
:0102280022B3
:10000300C2B47F647E00120321D2B41203217FCBDA
:100013001202767F3912022D7F2C12022DE4FF1279
:10002300022D7F3412022D7F0212022D7FCF120286
:10003300297FC112022D7F3012022D7FE812027632
:100043007F8512022DFF12022D7F7812022D7FEA87
:1000530012022912022D7FED1202767F6412022D05
:100063007F0312022D7F1212022D7F8112022D7F38
:10007300F71202767F2012022D7FC01202767F23B1
:1000830012022D7FC11202767F1012022D7FC5123C
:1000930002767F3E12022D7F2812022D7FC71202A5
:1000A300767F8612022D7F361202767F4812022D4A
:1000B3007F3A1202767F5512022D7FB11202297FF9
:1000C3001812022D7FB61202767F0812022D7F824C
:1000D30012022D7F2712022D7FF21202297F261290
:1000E30002767F0112022D7FE01202767F0F120249
:1000F3002D7F3112022D7F2B12022D7F0C12022D28
:100103007F0E12022D7F0812022D7F4E12022D7FC9
:10011300F112022D7F3712022D7F0712022D7F105D
:1001230012022D7F0312022D7F0E12022D7F091260
:10013300022DFF12022D7FE11202297F0E12022DE2
:100143007F1412022D7F0312022D7F1112022D7FC5
:100153000712022D7F3112022D7FC112022D7F481B
:1001630012022D7F0812022D7F0F12022D7F0C1217
:10017300022D7F3112022D7F3612022D7F0F1202C4
:100183002D7F111202767F781203217F29120276C6
:050193007F2C02027642
:1002FB008E0E8F0FAB05AA047F2A120276E50EFF36
:10030B00AD0F1201987F2B120276AF02AD031201D3
:06031B00987F2C0202761F
:0802BF008E088F098C0A8D0BDB
:1002C700E4FDFCFFFE1202FBE4F50CF50DE4FBFA7E
:1002D700AF09AD0B1201980BBB00010AEB64F04AA2
:1002E70070EE050DE50D7002050CC39440E50C9406
:0302F7000140DAE9
:0102FA0022E1
:100341001200037DE07C007F077E001202BF7D1F4B
:0A0351007C00E4FFFE1202BF80E909
:0300000002035B9D
:0C035B00787FE4F6D8FD75812002034194
:00000001FF
